:100000001DC037C036C035C034C033C032C031C067
:1000100053C02FC02EC02DC02CC02BC02AC029C059
:1000200028C027C026C025C024C023C022C021C0AC
:1000300020C01FC01EC01DC01CC01BC011241FBE7D
:10004000CFEFD2E0DEBFCDBF11E0A0E0B1E0EEEE39
:10005000F1E002C005900D92A430B107D9F721E07C
:10006000A4E0B1E001C01D92A930B207E1F751D080
:10007000BCC0C6CF8EB582608EBD789A089587E0E9
:1000800089B980EE88B985B1826885B9239A0895C7
:100090002E9A2E99FECF87B1089599E288ED0FB67A
:1000A000F894A8958093710091BD0FBEBA9AC29A38
:1000B000E6DFE0DF789408951F920F920FB60F925B
:1000C00011242F933F938F939F93C29B0FC08091D6
:1000D00002019091030101972091000130910101EB
:1000E000821B930B9DBD8CBDC29809C0C29A8091A2
:1000F000020190910301809590959DBD8CBDA895BE
:100100009F918F913F912F910F900FBE0F901F9055
:100110001895C3DF0F2EF0E2EF2EF3E0FF2EF02D47
:1001200004E115E0DD24D394CCEDD5E0A895B0DF53
:100130008D3838F08BE291E00197F1F700C00000B4
:10014000A7DF90E09C0126593109121613067CF4B2
:1001500010920501109206011092070110920801F9
:10016000D0930301C0930201D092040138C0875894
:100170009109181619067CF41092050110920601D7
:1001800010920701109208011093030100930201DD
:10019000D092040124C08091050190910601A091A4
:1001A0000701B0910801813325E79207A105B10548
:1001B00038F0F0920301E09202011092040112C0A3
:1001C0000196A11DB11D8093050190930601A09396
:1001D0000701B093080180910401882319F0B99AAE
:0E01E000C19AA4CFB99AC198A1CFF894FFCFCD
:0401EE00B04FE80323
:00000001FF
